{
  "_format": "hh-sol-artifact-1",
  "contractName": "NFTMarket",
  "sourceName": "contracts/NFTMarket.sol",
  "abi": [
    {
      "inputs": [],
      "stateMutability": "nonpayable",
      "type": "constructor"
    },
    {
      "anonymous": false,
      "inputs": [
        {
          "indexed": true,
          "internalType": "uint256",
          "name": "itemId",
          "type": "uint256"
        },
        {
          "indexed": true,
          "internalType": "address",
          "name": "nftContract",
          "type": "address"
        },
        {
          "indexed": true,
          "internalType": "uint256",
          "name": "tokenId",
          "type": "uint256"
        },
        {
          "indexed": false,
          "internalType": "address",
          "name": "seller",
          "type": "address"
        },
        {
          "indexed": false,
          "internalType": "address",
          "name": "owner",
          "type": "address"
        },
        {
          "indexed": false,
          "internalType": "string",
          "name": "category",
          "type": "string"
        },
        {
          "indexed": false,
          "internalType": "uint256",
          "name": "price",
          "type": "uint256"
        },
        {
          "indexed": false,
          "internalType": "bool",
          "name": "isSold",
          "type": "bool"
        }
      ],
      "name": "MarketItemCreated",
      "type": "event"
    },
    {
      "inputs": [
        {
          "internalType": "address",
          "name": "nftContract",
          "type": "address"
        },
        {
          "internalType": "uint256",
          "name": "tokenId",
          "type": "uint256"
        },
        {
          "internalType": "uint256",
          "name": "price",
          "type": "uint256"
        },
        {
          "internalType": "string",
          "name": "category",
          "type": "string"
        }
      ],
      "name": "createMarketItem",
      "outputs": [],
      "stateMutability": "payable",
      "type": "function"
    },
    {
      "inputs": [
        {
          "internalType": "address",
          "name": "nftContract",
          "type": "address"
        },
        {
          "internalType": "uint256",
          "name": "itemId",
          "type": "uint256"
        }
      ],
      "name": "createMarketSale",
      "outputs": [],
      "stateMutability": "payable",
      "type": "function"
    },
    {
      "inputs": [],
      "name": "fetchCreateNFTs",
      "outputs": [
        {
          "components": [
            {
              "internalType": "uint256",
              "name": "itemId",
              "type": "uint256"
            },
            {
              "internalType": "address",
              "name": "nftContract",
              "type": "address"
            },
            {
              "internalType": "uint256",
              "name": "tokenId",
              "type": "uint256"
            },
            {
              "internalType": "address payable",
              "name": "seller",
              "type": "address"
            },
            {
              "internalType": "address payable",
              "name": "owner",
              "type": "address"
            },
            {
              "internalType": "string",
              "name": "category",
              "type": "string"
            },
            {
              "internalType": "uint256",
              "name": "price",
              "type": "uint256"
            },
            {
              "internalType": "bool",
              "name": "isSold",
              "type": "bool"
            }
          ],
          "internalType": "struct NFTMarket.MarketItem[]",
          "name": "",
          "type": "tuple[]"
        }
      ],
      "stateMutability": "view",
      "type": "function"
    },
    {
      "inputs": [],
      "name": "fetchPurchasedNFTs",
      "outputs": [
        {
          "components": [
            {
              "internalType": "uint256",
              "name": "itemId",
              "type": "uint256"
            },
            {
              "internalType": "address",
              "name": "nftContract",
              "type": "address"
            },
            {
              "internalType": "uint256",
              "name": "tokenId",
              "type": "uint256"
            },
            {
              "internalType": "address payable",
              "name": "seller",
              "type": "address"
            },
            {
              "internalType": "address payable",
              "name": "owner",
              "type": "address"
            },
            {
              "internalType": "string",
              "name": "category",
              "type": "string"
            },
            {
              "internalType": "uint256",
              "name": "price",
              "type": "uint256"
            },
            {
              "internalType": "bool",
              "name": "isSold",
              "type": "bool"
            }
          ],
          "internalType": "struct NFTMarket.MarketItem[]",
          "name": "",
          "type": "tuple[]"
        }
      ],
      "stateMutability": "view",
      "type": "function"
    },
    {
      "inputs": [
        {
          "internalType": "string",
          "name": "category",
          "type": "string"
        }
      ],
      "name": "getItemsByCategory",
      "outputs": [
        {
          "components": [
            {
              "internalType": "uint256",
              "name": "itemId",
              "type": "uint256"
            },
            {
              "internalType": "address",
              "name": "nftContract",
              "type": "address"
            },
            {
              "internalType": "uint256",
              "name": "tokenId",
              "type": "uint256"
            },
            {
              "internalType": "address payable",
              "name": "seller",
              "type": "address"
            },
            {
              "internalType": "address payable",
              "name": "owner",
              "type": "address"
            },
            {
              "internalType": "string",
              "name": "category",
              "type": "string"
            },
            {
              "internalType": "uint256",
              "name": "price",
              "type": "uint256"
            },
            {
              "internalType": "bool",
              "name": "isSold",
              "type": "bool"
            }
          ],
          "internalType": "struct NFTMarket.MarketItem[]",
          "name": "",
          "type": "tuple[]"
        }
      ],
      "stateMutability": "view",
      "type": "function"
    },
    {
      "inputs": [],
      "name": "getListingPrice",
      "outputs": [
        {
          "internalType": "uint256",
          "name": "",
          "type": "uint256"
        }
      ],
      "stateMutability": "view",
      "type": "function"
    },
    {
      "inputs": [],
      "name": "getMarketItems",
      "outputs": [
        {
          "components": [
            {
              "internalType": "uint256",
              "name": "itemId",
              "type": "uint256"
            },
            {
              "internalType": "address",
              "name": "nftContract",
              "type": "address"
            },
            {
              "internalType": "uint256",
              "name": "tokenId",
              "type": "uint256"
            },
            {
              "internalType": "address payable",
              "name": "seller",
              "type": "address"
            },
            {
              "internalType": "address payable",
              "name": "owner",
              "type": "address"
            },
            {
              "internalType": "string",
              "name": "category",
              "type": "string"
            },
            {
              "internalType": "uint256",
              "name": "price",
              "type": "uint256"
            },
            {
              "internalType": "bool",
              "name": "isSold",
              "type": "bool"
            }
          ],
          "internalType": "struct NFTMarket.MarketItem[]",
          "name": "",
          "type": "tuple[]"
        }
      ],
      "stateMutability": "view",
      "type": "function"
    }
  ],
  "bytecode": "0x6080604052662386f26fc1000060045534801561001b57600080fd5b506001600055600380546001600160a01b0319163317905561166d806100426000396000f3fe6080604052600436106100705760003560e01c806395478fbf1161004e57806395478fbf146100cf578063c23b139e146100ef578063ee45a71114610104578063ee6ba2341461011757600080fd5b806312e855851461007557806329aa3a42146100985780637cbad146146100ba575b600080fd5b34801561008157600080fd5b506004546040519081526020015b60405180910390f35b3480156100a457600080fd5b506100ad61012c565b60405161008f91906114b4565b3480156100c657600080fd5b506100ad610381565b3480156100db57600080fd5b506100ad6100ea366004611323565b610614565b6101026100fd366004611294565b6109a6565b005b6101026101123660046112bd565b610bb8565b34801561012357600080fd5b506100ad610ec2565b6060600061013960015490565b9050600061014660025490565b60015461015391906115b4565b90506000808267ffffffffffffffff81111561017f57634e487b7160e01b600052604160045260246000fd5b6040519080825280602002602001820160405280156101b857816020015b6101a5611155565b81526020019060019003908161019d5790505b50905060005b848110156103785760006005816101d684600161159c565b81526020810191909152604001600020600401546001600160a01b0316141561036657600060058161020984600161159c565b815260208082019290925260409081016000908120548082526005808552918390208351610100810185528154815260018201546001600160a01b0390811696820196909652600282015494810194909452600381015485166060850152600481015490941660808401529083018054919450839160a08401919061028d906115cb565b80601f01602080910402602001604051908101604052809291908181526020018280546102b9906115cb565b80156103065780601f106102db57610100808354040283529160200191610306565b820191906000526020600020905b8154815290600101906020018083116102e957829003601f168201915b50505091835250506006820154602082015260079091015460ff161515604090910152845185908790811061034b57634e487b7160e01b600052603260045260246000fd5b602090810291909101015261036160018661159c565b945050505b8061037081611606565b9150506101be565b50949350505050565b6060600061038e60015490565b905060008060005b838110156103f15733600560006103ae84600161159c565b81526020810191909152604001600020600301546001600160a01b031614156103df576103dc60018461159c565b92505b806103e981611606565b915050610396565b5060008267ffffffffffffffff81111561041b57634e487b7160e01b600052604160045260246000fd5b60405190808252806020026020018201604052801561045457816020015b610441611155565b8152602001906001900390816104395790505b50905060005b8481101561037857336005600061047284600161159c565b81526020810191909152604001600020600301546001600160a01b031614156106025760006005816104a584600161159c565b815260208082019290925260409081016000908120548082526005808552918390208351610100810185528154815260018201546001600160a01b0390811696820196909652600282015494810194909452600381015485166060850152600481015490941660808401529083018054919450839160a084019190610529906115cb565b80601f0160208091040260200160405190810160405280929190818152602001828054610555906115cb565b80156105a25780601f10610577576101008083540402835291602001916105a2565b820191906000526020600020905b81548152906001019060200180831161058557829003601f168201915b50505091835250506006820154602082015260079091015460ff16151560409091015284518590879081106105e757634e487b7160e01b600052603260045260246000fd5b60209081029190910101526105fd60018661159c565b945050505b8061060c81611606565b91505061045a565b6060600061062160015490565b905060008060005b838110156106fe5786866040516020016106449291906113ae565b604051602081830303815290604052805190602001206005600083600161066b919061159c565b815260200190815260200160002060050160405160200161068c91906113be565b604051602081830303815290604052805190602001201480156106d9575060006005816106ba84600161159c565b81526020810191909152604001600020600401546001600160a01b0316145b156106ec576106e960018461159c565b92505b806106f681611606565b915050610629565b5060008267ffffffffffffffff81111561072857634e487b7160e01b600052604160045260246000fd5b60405190808252806020026020018201604052801561076157816020015b61074e611155565b8152602001906001900390816107465790505b50905060005b8481101561099b5787876040516020016107829291906113ae565b60405160208183030381529060405280519060200120600560008360016107a9919061159c565b81526020019081526020016000206005016040516020016107ca91906113be565b60405160208183030381529060405280519060200120148015610817575060006005816107f884600161159c565b81526020810191909152604001600020600401546001600160a01b0316145b1561098957600060058161082c84600161159c565b815260208082019290925260409081016000908120548082526005808552918390208351610100810185528154815260018201546001600160a01b0390811696820196909652600282015494810194909452600381015485166060850152600481015490941660808401529083018054919450839160a0840191906108b0906115cb565b80601f01602080910402602001604051908101604052809291908181526020018280546108dc906115cb565b80156109295780601f106108fe57610100808354040283529160200191610929565b820191906000526020600020905b81548152906001019060200180831161090c57829003601f168201915b50505091835250506006820154602082015260079091015460ff161515604090910152845185908790811061096e57634e487b7160e01b600052603260045260246000fd5b602090810291909101015261098460018661159c565b945050505b8061099381611606565b915050610767565b509695505050505050565b600260005414156109fe5760405162461bcd60e51b815260206004820152601f60248201527f5265656e7472616e637947756172643a207265656e7472616e742063616c6c0060448201526064015b60405180910390fd5b60026000818155828152600560205260409020600681015491015434821115610a835760405162461bcd60e51b815260206004820152603160248201527f506c65617365206d616b652074686520707269636520746f2062652073616d65604482015270206173206c697374696e6720707269636560781b60648201526084016109f5565b6000838152600560205260408082206003015490516001600160a01b03909116913480156108fc02929091818181858888f19350505050158015610acb573d6000803e3d6000fd5b506040516323b872dd60e01b8152306004820152336024820152604481018290526001600160a01b038516906323b872dd90606401600060405180830381600087803b158015610b1a57600080fd5b505af1158015610b2e573d6000803e3d6000fd5b505050600084815260056020526040902060078101805460ff1916600117905560040180546001600160a01b0319163317905550610b70600280546001019055565b6003546004546040516001600160a01b039092169181156108fc0291906000818181858888f19350505050158015610bac573d6000803e3d6000fd5b50506001600055505050565b60026000541415610c0b5760405162461bcd60e51b815260206004820152601f60248201527f5265656e7472616e637947756172643a207265656e7472616e742063616c6c0060448201526064016109f5565b600260005582610c555760405162461bcd60e51b81526020600482015260156024820152744e6f206974656d20666f722066726565206865726560581b60448201526064016109f5565b6004543414610cb25760405162461bcd60e51b815260206004820152602360248201527f5072696365206d7573742062652073616d65206173206c697374696e6720707260448201526269636560e81b60648201526084016109f5565b610cc0600180546001019055565b6000610ccb60015490565b9050604051806101000160405280828152602001876001600160a01b03168152602001868152602001336001600160a01b0316815260200160006001600160a01b0316815260200184848080601f01602080910402602001604051908101604052809392919081815260200183838082843760009201829052509385525050506020808301889052604092830182905284825260058082529183902084518155848201516001820180546001600160a01b03199081166001600160a01b039384161790915594860151600283015560608601516003830180548716918316919091179055608086015160048301805490961691161790935560a08401518051610ddb938501929190910190611198565b5060c0820151600682015560e0909101516007909101805460ff19169115159190911790556040516323b872dd60e01b8152336004820152306024820152604481018690526001600160a01b038716906323b872dd90606401600060405180830381600087803b158015610e4e57600080fd5b505af1158015610e62573d6000803e3d6000fd5b5050505084866001600160a01b0316827f058ba5dd04a75d8581491c06ed3308197306a78713282c4d1bdeef5bde9ba83333600088888b6000604051610ead96959493929190611459565b60405180910390a45050600160005550505050565b60606000610ecf60015490565b905060008060005b83811015610f32573360056000610eef84600161159c565b81526020810191909152604001600020600401546001600160a01b03161415610f2057610f1d60018461159c565b92505b80610f2a81611606565b915050610ed7565b5060008267ffffffffffffffff811115610f5c57634e487b7160e01b600052604160045260246000fd5b604051908082528060200260200182016040528015610f9557816020015b610f82611155565b815260200190600190039081610f7a5790505b50905060005b84811015610378573360056000610fb384600161159c565b81526020810191909152604001600020600401546001600160a01b03161415611143576000600581610fe684600161159c565b815260208082019290925260409081016000908120548082526005808552918390208351610100810185528154815260018201546001600160a01b0390811696820196909652600282015494810194909452600381015485166060850152600481015490941660808401529083018054919450839160a08401919061106a906115cb565b80601f0160208091040260200160405190810160405280929190818152602001828054611096906115cb565b80156110e35780601f106110b8576101008083540402835291602001916110e3565b820191906000526020600020905b8154815290600101906020018083116110c657829003601f168201915b50505091835250506006820154602082015260079091015460ff161515604090910152845185908790811061112857634e487b7160e01b600052603260045260246000fd5b602090810291909101015261113e60018661159c565b945050505b8061114d81611606565b915050610f9b565b604080516101008101825260008082526020820181905291810182905260608082018390526080820183905260a082015260c0810182905260e081019190915290565b8280546111a4906115cb565b90600052602060002090601f0160209004810192826111c6576000855561120c565b82601f106111df57805160ff191683800117855561120c565b8280016001018555821561120c579182015b8281111561120c5782518255916020019190600101906111f1565b5061121892915061121c565b5090565b5b80821115611218576000815560010161121d565b80356001600160a01b038116811461124857600080fd5b919050565b60008083601f84011261125e578182fd5b50813567ffffffffffffffff811115611275578182fd5b60208301915083602082850101111561128d57600080fd5b9250929050565b600080604083850312156112a6578182fd5b6112af83611231565b946020939093013593505050565b6000806000806000608086880312156112d4578081fd5b6112dd86611231565b94506020860135935060408601359250606086013567ffffffffffffffff811115611306578182fd5b6113128882890161124d565b969995985093965092949392505050565b60008060208385031215611335578182fd5b823567ffffffffffffffff81111561134b578283fd5b6113578582860161124d565b90969095509350505050565b60008151808452815b818110156113885760208185018101518683018201520161136c565b818111156113995782602083870101525b50601f01601f19169290920160200192915050565b8183823760009101908152919050565b600080835482600182811c9150808316806113da57607f831692505b60208084108214156113fa57634e487b7160e01b87526022600452602487fd5b81801561140e576001811461141f5761144b565b60ff1986168952848901965061144b565b60008a815260209020885b868110156114435781548b82015290850190830161142a565b505084890196505b509498975050505050505050565b6001600160a01b0387811682528616602082015260a06040820181905281018490526000848660c08401378060c0868401015260c0601f19601f87011683010190508360608301528215156080830152979650505050505050565b60006020808301818452808551808352604092508286019150828160051b870101848801865b8381101561158e57888303603f19018552815180518452878101516001600160a01b03168885015286810151878501526060808201516101009190611529828801826001600160a01b03169052565b50506080828101516001600160a01b03169086015260a08083015181870183905261155683880182611363565b9250505060c080830151818701525060e080830151925061157a8187018415159052565b5095880195935050908601906001016114da565b509098975050505050505050565b600082198211156115af576115af611621565b500190565b6000828210156115c6576115c6611621565b500390565b600181811c908216806115df57607f821691505b6020821081141561160057634e487b7160e01b600052602260045260246000fd5b50919050565b600060001982141561161a5761161a611621565b5060010190565b634e487b7160e01b600052601160045260246000fdfea2646970667358221220597f06be28654cf667018dd4e3d252f3a385aad76fd7fc70af3147c7ee88ff2d64736f6c63430008040033",
  "linkReferences": {},
  "deployedLinkReferences": {}
}